{
  "contractName": "MarketPlace",
  "abi": [
    {
      "anonymous": false,
      "inputs": [
        {
          "indexed": false,
          "internalType": "string",
          "name": "message",
          "type": "string"
        }
      ],
      "name": "Decrement",
      "type": "event"
    },
    {
      "anonymous": false,
      "inputs": [
        {
          "indexed": false,
          "internalType": "string",
          "name": "message",
          "type": "string"
        }
      ],
      "name": "Increment",
      "type": "event"
    },
    {
      "inputs": [
        {
          "internalType": "uint256",
          "name": "",
          "type": "uint256"
        }
      ],
      "name": "marketListings",
      "outputs": [
        {
          "internalType": "address",
          "name": "ownerWallet",
          "type": "address"
        },
        {
          "internalType": "string",
          "name": "name",
          "type": "string"
        },
        {
          "internalType": "string",
          "name": "price",
          "type": "string"
        },
        {
          "internalType": "uint256",
          "name": "id",
          "type": "uint256"
        }
      ],
      "stateMutability": "view",
      "type": "function"
    },
    {
      "inputs": [
        {
          "internalType": "address",
          "name": "owner",
          "type": "address"
        },
        {
          "internalType": "string",
          "name": "name",
          "type": "string"
        },
        {
          "internalType": "string",
          "name": "price",
          "type": "string"
        }
      ],
      "name": "addListing",
      "outputs": [],
      "stateMutability": "nonpayable",
      "type": "function"
    },
    {
      "inputs": [
        {
          "internalType": "uint256",
          "name": "listingID",
          "type": "uint256"
        }
      ],
      "name": "removeListing",
      "outputs": [],
      "stateMutability": "nonpayable",
      "type": "function"
    },
    {
      "inputs": [],
      "name": "getListingCount",
      "outputs": [
        {
          "internalType": "uint256",
          "name": "",
          "type": "uint256"
        }
      ],
      "stateMutability": "view",
      "type": "function"
    },
    {
      "inputs": [],
      "name": "getListings",
      "outputs": [
        {
          "components": [
            {
              "internalType": "address",
              "name": "ownerWallet",
              "type": "address"
            },
            {
              "internalType": "string",
              "name": "name",
              "type": "string"
            },
            {
              "internalType": "string",
              "name": "price",
              "type": "string"
            },
            {
              "internalType": "uint256",
              "name": "id",
              "type": "uint256"
            }
          ],
          "internalType": "struct MarketPlace.listing[]",
          "name": "",
          "type": "tuple[]"
        }
      ],
      "stateMutability": "view",
      "type": "function"
    }
  ],
  "bytecode": "0x608060405260015f55348015610013575f80fd5b50611079806100215f395ff3fe608060405234801561000f575f80fd5b5060043610610055575f3560e01c80633078895214610059578063479ad4c31461008c57806387ed92d7146100a8578063b61e1469146100c6578063f1b2d6a3146100e2575b5f80fd5b610073600480360381019061006e9190610716565b610100565b6040516100839493929190610819565b60405180910390f35b6100a660048036038101906100a19190610716565b610257565b005b6100b06102ed565b6040516100bd919061086a565b60405180910390f35b6100e060048036038101906100db91906109d9565b6102f5565b005b6100ea61040c565b6040516100f79190610be9565b60405180910390f35b6001602052805f5260405f205f91509050805f015f9054906101000a900473ffffffffffffffffffffffffffffffffffffffff169080600101805461014490610c36565b80601f016020809104026020016040519081016040528092919081815260200182805461017090610c36565b80156101bb5780601f10610192576101008083540402835291602001916101bb565b820191905f5260205f20905b81548152906001019060200180831161019e57829003601f168201915b5050505050908060020180546101d090610c36565b80601f01602080910402602001604051908101604052809291908181526020018280546101fc90610c36565b80156102475780601f1061021e57610100808354040283529160200191610247565b820191905f5260205f20905b81548152906001019060200180831161022a57829003601f168201915b5050505050908060030154905084565b60015f8281526020019081526020015f205f8082015f6101000a81549073ffffffffffffffffffffffffffffffffffffffff0219169055600182015f61029d919061063e565b600282015f6102ac919061063e565b600382015f905550507f1e987d14a1f5129625e5e36a8c5c3f7dce87512e55e5ab1ba141956fbbed6f426040516102e290610cb0565b60405180910390a150565b5f8054905090565b60405180608001604052808473ffffffffffffffffffffffffffffffffffffffff1681526020018381526020018281526020015f5481525060015f805481526020019081526020015f205f820151815f015f6101000a81548173ffffffffffffffffffffffffffffffffffffffff021916908373ffffffffffffffffffffffffffffffffffffffff16021790555060208201518160010190816103989190610e6b565b5060408201518160020190816103ae9190610e6b565b50606082015181600301559050505f808154809291906103cd90610f67565b91905055507f0500fd844df03614b0440e900b394ce27d08e96434c0ef4c73d0a9e87ea282a06040516103ff90610ff8565b60405180910390a1505050565b60605f805467ffffffffffffffff81111561042a576104296108b5565b5b60405190808252806020026020018201604052801561046357816020015b61045061067b565b8152602001906001900390816104485790505b5090505f5b5f548110156106365760015f8281526020019081526020015f206040518060800160405290815f82015f9054906101000a900473ffffffffffffffffffffffffffffffffffffffff1673ffffffffffffffffffffffffffffffffffffffff1673ffffffffffffffffffffffffffffffffffffffff1681526020016001820180546104f190610c36565b80601f016020809104026020016040519081016040528092919081815260200182805461051d90610c36565b80156105685780601f1061053f57610100808354040283529160200191610568565b820191905f5260205f20905b81548152906001019060200180831161054b57829003601f168201915b5050505050815260200160028201805461058190610c36565b80601f01602080910402602001604051908101604052809291908181526020018280546105ad90610c36565b80156105f85780601f106105cf576101008083540402835291602001916105f8565b820191905f5260205f20905b8154815290600101906020018083116105db57829003601f168201915b5050505050815260200160038201548152505082828151811061061e5761061d611016565b5b60200260200101819052508080600101915050610468565b508091505090565b50805461064a90610c36565b5f825580601f1061065b5750610678565b601f0160209004905f5260205f209081019061067791906106b7565b5b50565b60405180608001604052805f73ffffffffffffffffffffffffffffffffffffffff16815260200160608152602001606081526020015f81525090565b5b808211156106ce575f815f9055506001016106b8565b5090565b5f604051905090565b5f80fd5b5f80fd5b5f819050919050565b6106f5816106e3565b81146106ff575f80fd5b50565b5f81359050610710816106ec565b92915050565b5f6020828403121561072b5761072a6106db565b5b5f61073884828501610702565b91505092915050565b5f73ffffffffffffffffffffffffffffffffffffffff82169050919050565b5f61076a82610741565b9050919050565b61077a81610760565b82525050565b5f81519050919050565b5f82825260208201905092915050565b5f5b838110156107b757808201518184015260208101905061079c565b5f8484015250505050565b5f601f19601f8301169050919050565b5f6107dc82610780565b6107e6818561078a565b93506107f681856020860161079a565b6107ff816107c2565b840191505092915050565b610813816106e3565b82525050565b5f60808201905061082c5f830187610771565b818103602083015261083e81866107d2565b9050818103604083015261085281856107d2565b9050610861606083018461080a565b95945050505050565b5f60208201905061087d5f83018461080a565b92915050565b61088c81610760565b8114610896575f80fd5b50565b5f813590506108a781610883565b92915050565b5f80fd5b5f80fd5b7f4e487b71000000000000000000000000000000000000000000000000000000005f52604160045260245ffd5b6108eb826107c2565b810181811067ffffffffffffffff8211171561090a576109096108b5565b5b80604052505050565b5f61091c6106d2565b905061092882826108e2565b919050565b5f67ffffffffffffffff821115610947576109466108b5565b5b610950826107c2565b9050602081019050919050565b828183375f83830152505050565b5f61097d6109788461092d565b610913565b905082815260208101848484011115610999576109986108b1565b5b6109a484828561095d565b509392505050565b5f82601f8301126109c0576109bf6108ad565b5b81356109d084826020860161096b565b91505092915050565b5f805f606084860312156109f0576109ef6106db565b5b5f6109fd86828701610899565b935050602084013567ffffffffffffffff811115610a1e57610a1d6106df565b5b610a2a868287016109ac565b925050604084013567ffffffffffffffff811115610a4b57610a4a6106df565b5b610a57868287016109ac565b9150509250925092565b5f81519050919050565b5f82825260208201905092915050565b5f819050602082019050919050565b610a9381610760565b82525050565b5f82825260208201905092915050565b5f610ab382610780565b610abd8185610a99565b9350610acd81856020860161079a565b610ad6816107c2565b840191505092915050565b610aea816106e3565b82525050565b5f608083015f830151610b055f860182610a8a565b5060208301518482036020860152610b1d8282610aa9565b91505060408301518482036040860152610b378282610aa9565b9150506060830151610b4c6060860182610ae1565b508091505092915050565b5f610b628383610af0565b905092915050565b5f602082019050919050565b5f610b8082610a61565b610b8a8185610a6b565b935083602082028501610b9c85610a7b565b805f5b85811015610bd75784840389528151610bb88582610b57565b9450610bc383610b6a565b925060208a01995050600181019050610b9f565b50829750879550505050505092915050565b5f6020820190508181035f830152610c018184610b76565b905092915050565b7f4e487b71000000000000000000000000000000000000000000000000000000005f52602260045260245ffd5b5f6002820490506001821680610c4d57607f821691505b602082108103610c6057610c5f610c09565b5b50919050565b7f52656d6f766564206c697374696e6700000000000000000000000000000000005f82015250565b5f610c9a600f8361078a565b9150610ca582610c66565b602082019050919050565b5f6020820190508181035f830152610cc781610c8e565b9050919050565b5f819050815f5260205f209050919050565b5f6020601f8301049050919050565b5f82821b905092915050565b5f60088302610d2a7fffffffffffffffffffffffffffffffffffffffffffffffffffffffffffffffff82610cef565b610d348683610cef565b95508019841693508086168417925050509392505050565b5f819050919050565b5f610d6f610d6a610d65846106e3565b610d4c565b6106e3565b9050919050565b5f819050919050565b610d8883610d55565b610d9c610d9482610d76565b848454610cfb565b825550505050565b5f90565b610db0610da4565b610dbb818484610d7f565b505050565b5b81811015610dde57610dd35f82610da8565b600181019050610dc1565b5050565b601f821115610e2357610df481610cce565b610dfd84610ce0565b81016020851015610e0c578190505b610e20610e1885610ce0565b830182610dc0565b50505b505050565b5f82821c905092915050565b5f610e435f1984600802610e28565b1980831691505092915050565b5f610e5b8383610e34565b9150826002028217905092915050565b610e7482610780565b67ffffffffffffffff811115610e8d57610e8c6108b5565b5b610e978254610c36565b610ea2828285610de2565b5f60209050601f831160018114610ed3575f8415610ec1578287015190505b610ecb8582610e50565b865550610f32565b601f198416610ee186610cce565b5f5b82811015610f0857848901518255600182019150602085019450602081019050610ee3565b86831015610f255784890151610f21601f891682610e34565b8355505b6001600288020188555050505b505050505050565b7f4e487b71000000000000000000000000000000000000000000000000000000005f52601160045260245ffd5b5f610f71826106e3565b91507fffffffffffffffffffffffffffffffffffffffffffffffffffffffffffffffff8203610fa357610fa2610f3a565b5b600182019050919050565b7f437265617465642061206e6577206c697374696e6700000000000000000000005f82015250565b5f610fe260158361078a565b9150610fed82610fae565b602082019050919050565b5f6020820190508181035f83015261100f81610fd6565b9050919050565b7f4e487b71000000000000000000000000000000000000000000000000000000005f52603260045260245ffdfea2646970667358221220aae06e94ff77b38c5ffd72331726a40fec0e34d8a530bcfdfed93eff8afd6cf064736f6c63430008180033",
  "immutableReferences": {},
  "source": "// SPDX-License-Identifier: UNLICENSED\npragma solidity ^0.8.24;\n\ncontract MarketPlace{\n\n    uint256 listingCount = 1;\n\n    struct listing {\n        address ownerWallet;\n        string name;\n        string price;\n        uint256 id;\n    }\n\n\n    mapping (uint256 => listing) public marketListings;\n\n    event Increment(string message);\n    event Decrement(string message);\n\n    function addListing(address owner, string memory name, string memory price) public {\n        marketListings[listingCount] = listing(owner, name, price, listingCount);\n\n        listingCount++;\n\n        emit Increment(\"Created a new listing\");\n    }\n\n    function removeListing(uint256 listingID) public {\n        \n        delete marketListings[listingID];\n\n        emit Decrement(\"Removed listing\");\n    }\n    \n    function getListingCount() public view returns (uint256){\n        return listingCount;\n    }\n\n    function getListings() public view returns (listing[] memory) {\n        listing[] memory ret = new listing[](listingCount);\n        for (uint i = 0; i < listingCount; i++) {\n            ret[i] = marketListings[i];\n        }\n        return ret;\n    }\n}",
  "sourcePath": "/Users/dragos/Documents/Development/EncodeStuff/Encode2024/contracts/Marketplace.sol",
  "compiler": {
    "name": "solc",
    "version": "0.8.24+commit.e11b9ed9.Emscripten.clang"
  },
  "schemaVersion": "3.4.16",
  "updatedAt": "2024-10-27T05:17:30.280Z",
  "devdoc": {
    "kind": "dev",
    "methods": {},
    "version": 1
  },
  "userdoc": {
    "kind": "user",
    "methods": {},
    "version": 1
  }
}